:100000000C943F000C94E6010C94E6010C94E6017C
:100010000C94E6010C94E6010C9413010C94E60197
:100020000C9469000C94E6010C94E6010C94E60132
:100030000C94E6010C94E6010C94E6010C94E601A4
:100040000C94E6010C94E6010C94E6010C94E60194
:100050000C94E6010C94E6010C94E6010C94E60184
:100060000C94E6010C94E6010C94E6010C94E60174
:100070000C94E6010C94E601380038078000112446
:100080001FBECFEFCDBFDFE3DEBFE8E7F0E040E02B
:1000900017C0B591A59135912591059107FD0CC02B
:1000A00095918591EF01F92FE82F05900D92A217F8
:1000B000B307D9F7FE0104C01D92A217B307E1F7F9
:1000C000ED37F40731F70E948E010C94C201F894C9
:0200D000FFCF60
:1000D2001F920F920FB60F9211242F933F934F93BB
:1000E2005F936F937F938F939F93AF93BF93EF939E
:1000F200FF9381E080930B0A809103388F5F809396
:100102000338809106388230D1F480910038909182
:10011200013801968B39910508F449C010920038D4
:100122001092013880E8809325048EE080930604C3
:100132000E94D701109203381092063862C0809153
:1001420002388F5F80930238843021F488E08093F4
:10015200260457C08F3291F4F8949091053820917B
:1001620004388091033810920538809304387894CB
:10017200933048F1821B8930F8F025C08091023813
:100182008D3508F43EC010920238F89490910538EB
:1001920020910438809103381092053880930438F6
:1001A2007894933060F1821B893090F028C080935C
:1001B20000389093013825C0E0E0F4E08EE08683B9
:1001C2008CE08583DBCF0E94A2011092023819C015
:1001D200E0E0F4E08EE0868388E0858380E8809327
:1001E20026040E94D7011092003810920138109212
:1001F20003380E94DF0182E08093063802C00E9429
:10020200A201FF91EF91BF91AF919F918F917F9149
:100212006F915F914F913F912F910F900FBE0F9071
:040222001F9018957C
:100226001F920F920FB60F9211242F933F934F9365
:100236005F936F937F938F939F93AF93BF93EF9348
:10024600FF9380E48093090480910638811115C0DC
:10025600109205381092043810920338E0E0F4E06A
:100266008EE0868384E0858388E0809325040E945F
:10027600DF0181E0809306380DC080910638813019
:1002860049F4809105388F5F809305388091033853
:1002960080930438FF91EF91BF91AF919F918F9119
:1002A6007F916F915F914F913F912F910F900FBE6C
:0602B6000F901F90189547
:1002BC00E0E2F4E088E8818380E8858388E0868347
:1002CC00A0E0B4E08EE011968C93119716968C9367
:1002DC00169782E056968C9356978CE050968C939A
:1002EC00509754968C93549755968C935597579644
:1002FC008C93808B818B828B848B858B868BE0E4BB
:10030C00F4E0808B818B828B838B848B858B08951F
:10031C000E94CD010E945E010E94B5017894E0E537
:10032C00F0E080910638882311F081E001C085E06F
:08033C00808388950000F5CFD5
:100344000E94D70188E0809326048EE080930604FF
:10035400F894109205381092043810920338789467
:0603640010920638089516
:10036A00E0E0FAE01082118281E0828781E090E089
:0A037A0086A397A310A211A2089514
:10038400EC010E94EB010E94EA01CE010E94EC0103
:06039400CE010E94E80109
:10039A0088ED91E084BF909360009EEF84BF9093B4
:0403AA006100089551
:1003AE00E0E0FAE080818E7F808310A211A2089592
:0E03BE00E0E0FAE010A211A28FE08083089523
:0403CC000C9400008D
:0403D0000E94670020
:0203D40008958A
:0203D600089588
:0203D800089586
:00000001FF
